:100000000C9434000C943E000C943E000C943E0082
:100010000C943E000C943E000C943E000C943E0068
:100020000C943E000C943E000C943E000C943E0058
:100030000C943E000C943E000C943E000C943E0048
:100040000C943E000C943E000C943E000C943E0038
:100050000C943E000C943E000C943E000C943E0028
:100060000C943E000C943E0011241FBECFEFD8E04C
:10007000DEBFCDBF0E9440000C94A30E0C94000084
:100080008AB18C6F8AB984B1876084B984B188637E
:1000900084B985B18F7C85B92B9A5A9A84EC99E002
:1000A00020E931E0F9013197F1F70197D9F75A9832
:1000B0005B9A84EC99E020E931E0F9013197F1F79E
:1000C0000197D9F75B985C9A84EC99E020E931E0DC
:1000D000F9013197F1F70197D9F75C985F9A84ECB1
:1000E00099E020E931E0F9013197F1F70197D9F76B
:1000F0005F985E9A84EC99E020E931E0F90131974C
:10010000F1F70197D9F75E985D9A84EC99E020E9C0
:1001100031E0F9013197F1F70197D9F75D98289A05
:1001200084EC99E020E931E0F9013197F1F701978A
:10013000D9F72898299A84EC99E020E931E0F9016F
:100140003197F1F70197D9F729982A9A84EC99E029
:1001500020E931E0F9013197F1F70197D9F72A98B1
:100160002B982C9A2A9A84EC99E020E931E0F90145
:100170003197F1F70197D9F72A985F9A84EC99E0C3
:1001800020E931E0F9013197F1F70197D9F75F984C
:100190005C9A84EC99E020E931E0F9013197F1F7BC
:1001A0000197D9F75C985B9A84EC99E020E931E0FB
:1001B000F9013197F1F70197D9F75B985E9A84ECD2
:1001C00099E020E931E0F9013197F1F70197D9F78A
:1001D0005E98299A84EC99E020E931E0F9013197A1
:1001E000F1F70197D9F72998289A84EC99E020E94A
:1001F00031E0F9013197F1F70197D9F728985D9A25
:1002000084EC99E020E931E0F9013197F1F70197A9
:10021000D9F75D985A9A84EC99E020E931E0F90128
:100220003197F1F70197D9F75A982C982D9A5A9A45
:1002300084EC99E020E931E0F9013197F1F7019779
:10024000D9F75A985B9A84EC99E020E931E0F901FA
:100250003197F1F70197D9F75B985C9A84EC99E0B4
:1002600020E931E0F9013197F1F70197D9F75C986E
:100270005F9A84EC99E020E931E0F9013197F1F7D8
:100280000197D9F75F985E9A84EC99E020E931E014
:10029000F9013197F1F70197D9F75E985D9A84ECEF
:1002A00099E020E931E0F9013197F1F70197D9F7A9
:1002B0005D98289A84EC99E020E931E0F9013197C2
:1002C000F1F70197D9F72898299A84EC99E020E969
:1002D00031E0F9013197F1F70197D9F729982A9A76
:1002E00084EC99E020E931E0F9013197F1F70197C9
:1002F000D9F72A9885B1886185B98BB180698BB9A6
:100300002A9A88E893E120E931E0F9013197F1F781
:100310000197D9F78BB18F768BB92A988BB184640A
:100320008BB92A9A88E893E120E931E0F901319705
:10033000F1F70197D9F78BB18B7B8BB92A9885B1EF
:10034000876085B988E893E120E931E0F9013197C8
:10035000F1F70197D9F785B1887F85B98BB18065B1
:100360008BB9289A88E893E120E931E0F9013197C7
:10037000F1F70197D9F78BB18F7A8BB928988BB1A8
:1003800084628BB9289A88E893E120E931E0F90189
:100390003197F1F70197D9F78BB18B7D8BB92898FD
:1003A0008BB184648BB92A9A88E893E120E931E023
:1003B000F9013197F1F70197D9F78BB18B7B8BB9A5
:1003C0002A988BB18C618BB988E893E120E931E000
:1003D000F9013197F1F70197D9F78BB1837E8BB98A
:1003E0008BB180658BB9289A88E893E120E931E0E8
:1003F000F9013197F1F70197D9F78BB18F7A8BB962
:1004000028988BB180698BB92A9A88E893E120E912
:1004100031E0F9013197F1F70197D9F78BB18F7678
:100420008BB92A988BB184648BB92A9A88E893E1B6
:1004300020E931E0F9013197F1F70197D9F78BB154
:100440008B7B8BB92A9885B1876085B988E893E161
:1004500020E931E0F9013197F1F70197D9F785B13A
:10046000887F85B98BB180658BB9289A88E893E13C
:1004700020E931E0F9013197F1F70197D9F78BB114
:100480008F7A8BB928988BB184628BB9289A88E8C7
:1004900093E120E931E0F9013197F1F70197D9F7BC
:1004A0008BB18B7D8BB928988BB184648BB92A9AD8
:1004B00088E893E120E931E0F9013197F1F70197FC
:1004C000D9F78BB18B7B8BB92A988BB18C618BB9A7
:1004D00088E893E120E931E0F9013197F1F70197DC
:1004E000D9F75C9888E893E120E931E0F901319788
:1004F000F1F70197D9F75B9888E893E120E931E0BB
:10050000F9013197F1F70197D9F72D9888E893E130
:1005100020E931E0F9013197F1F70197D9F72C98EB
:1005200084EC99E020E931E0F9013197F1F7019786
:10053000D9F740E020E931E02D9A2B982C985E9A6B
:100540008BB1806A8BB98BB1837E8BB985B1887F83
:1005500085B98CED95E0F9013197F1F70197D9F75D
:100560008BB18F758BB95C9A289A8BB183758BB9D7
:1005700085B1897F85B98CED95E0F9013197F1F767
:100580000197D9F75C9828985B9A299A8BB18B745C
:100590008BB985B18A7F85B98CED95E0F9013197EA
:1005A000F1F70197D9F75B9829985A9A2A9A8BB153
:1005B00087748BB985B18C7F85B98CED95E0F90195
:1005C0003197F1F70197D9F75A982A984F5F42303F
:1005D00009F0B2CF40E020E931E02C9A5E9A8BB16D
:1005E000806A8BB98CED95E0F9013197F1F70197AD
:1005F000D9F78BB18F758BB95C9A289A8CED95E001
:10060000F9013197F1F70197D9F75C9828985B9A2F
:10061000299A8CED95E0F9013197F1F70197D9F717
:100620005B9829985A9A2A9A8CED95E0F9013197AE
:10063000F1F70197D9F75A982A984F5F423069F637
:1006400040E020E931E02B9A5E9A8BB1806A8BB949
:100650008CED95E0F9013197F1F70197D9F78BB15E
:100660008F758BB95C9A289A8CED95E0F9013197DA
:10067000F1F70197D9F75C9828985B9A299A8CED45
:1006800095E0F9013197F1F70197D9F75B9829982F
:100690005A9A2A9A8CED95E0F9013197F1F7019772
:1006A000D9F75A982A984F5F423069F640E020E91E
:1006B00031E02B9A2D988BB1806A8BB98CED95E047
:1006C000F9013197F1F70197D9F78BB18F758BB994
:1006D0005C9A289A8CED95E0F9013197F1F7019732
:1006E000D9F75C9828985B9A299A8CED95E0F901E6
:1006F0003197F1F70197D9F75B9829985A9A2A9A76
:100700008CED95E0F9013197F1F70197D9F75A98F7
:100710002A984F5F423069F640E020E931E02B9A99
:100720002C982D988BB1806A8BB98CED95E0F901EE
:100730003197F1F70197D9F78BB18F758BB95C9A27
:10074000289A8CED95E0F9013197F1F70197D9F7E7
:100750005C9828985B9A299A8CED95E0F90131977D
:10076000F1F70197D9F75B9829985A9A2A9A8CED54
:1007700095E0F9013197F1F70197D9F75A982A983E
:100780004F5F423009F0CBCF40E020E931E02B9AB7
:100790002C9A2D988BB1806A8BB98CED95E0F9017C
:1007A0003197F1F70197D9F78BB18F758BB95C9AB7
:1007B000289A8CED95E0F9013197F1F70197D9F777
:1007C0005C9828985B9A299A8CED95E0F90131970D
:1007D000F1F70197D9F75B9829985A9A2A9A8CEDE4
:1007E00095E0F9013197F1F70197D9F75A982A98CE
:1007F0004F5F423009F0CBCF40E020E931E02B9A47
:100800002C9A2D9A8BB1806A8BB98CED95E0F90109
:100810003197F1F70197D9F78BB18F758BB95C9A46
:10082000289A8CED95E0F9013197F1F70197D9F706
:100830005C9828985B9A299A8CED95E0F90131979C
:10084000F1F70197D9F75B9829985A9A2A9A8CED73
:1008500095E0F9013197F1F70197D9F75A982A985D
:100860004F5F423009F0CBCF2B982C9A2D9A8BB149
:10087000806A8BB98CED95E020E931E0F901319780
:10088000F1F70197D9F78BB18F758BB95C9A289ADC
:100890008CED95E020E931E0F9013197F1F701970E
:1008A000D9F75C9828985B9A299A8CED95E020E915
:1008B00031E0F9013197F1F70197D9F75B98299861
:1008C0005A9A2A9A8CED95E020E931E0F9013197A6
:1008D000F1F70197D9F75A982A982D988BB183741C
:1008E0008BB985B1887F85B92E9A88E893E120E994
:1008F00031E0F9013197F1F70197D9F750E020E4A1
:100900003FE10CC15E9A2C9AC9010197F1F75E98FC
:100910002C985A9A2D9AC9010197F1F75A982D9857
:100920002A9A2B9AC9010197F1F72A982B984F5FC1
:10093000493141F785B1837485B985B1887F85B91F
:100940005E9A2C9A40E05E9A2C9AC9010197F1F7C1
:100950005E982C985B9A2C9AC9010197F1F75B98E5
:100960002C98299A2C9AC9010197F1F729982C986B
:100970004F5F493141F785B1837485B985B1887F6F
:1009800085B95E9A2C9A40E05E9A2C9AC90101972B
:10099000F1F75E982C985C9A2B9AC9010197F1F7B0
:1009A0005C982B98289A2D9AC9010197F1F72898FD
:1009B0002D984F5F483241F785B1837485B985B171
:1009C000887F85B95E9A2C9A40E05E9A2C9AC9017C
:1009D0000197F1F75E982C985F9A2C9AC9010197BC
:1009E000F1F75F982C985D9A2C9AC9010197F1F75D
:1009F0005D982C984F5F483241F785B1837485B973
:100A000085B1887F85B95E9A2C9A40E05E9A2C9ACF
:100A1000C9010197F1F75E982C982A9A2D9AC9017D
:100A20000197F1F72A982D985A9A2B9AC9010197A4
:100A3000F1F75A982B984F5F483241F785B183748C
:100A400085B985B1887F85B95E9A2C9A40E05E9A17
:100A50002C9AC9010197F1F75E982C98299A2C9A43
:100A6000C9010197F1F729982C985B9A2C9AC90132
:100A70000197F1F75B982C984F5F483241F785B1A9
:100A8000837485B985B1887F85B95E9A2C9A40E0D8
:100A90005E9A2C9AC9010197F1F75E982C98289AD2
:100AA0002B9AC9010197F1F728982B985C9A2D9AF7
:100AB000C9010197F1F75C982D984F5F483241F7D3
:100AC00085B1837485B985B1887F85B95E9A2C9A82
:100AD00040E05E9A2C9AC9010197F1F75E982C9834
:100AE0005D9A2C9AC9010197F1F75D982C985F9A4D
:100AF0002C9AC9010197F1F75F982C984F5F483203
:100B000041F785B1837485B985B1887F85B95E5F0A
:100B10005A3021F450E020E43FE114C140E0F2CE2D
:100B2000289A2D9AC9010197F1F728982D985D9A76
:100B30002C9AC9010197F1F75D982C985A9A2B9A33
:100B4000C9010197F1F75A982B984F5F433241F74B
:100B50008BB183708BB985B1887F85B985B1877C6E
:100B600085B940E05D9A2D9AC9010197F1F75D982A
:100B70002D985A9A2C9AC9010197F1F75A982C98F6
:100B80005B9A2B9AC9010197F1F75B982B984F5FFD
:100B9000433241F78BB183708BB985B1887F85B9BA
:100BA00085B1877C85B940E05A9A2D9AC901019791
:100BB000F1F75A982D985B9A2C9AC9010197F1F791
:100BC0005B982C985C9A2B9AC9010197F1F75C9875
:100BD0002B984F5F433241F78BB183708BB985B14E
:100BE000887F85B985B1877C85B940E05B9A2D9A6D
:100BF000C9010197F1F75B982D985C9A2C9AC9016D
:100C00000197F1F75C982C985F9A2B9AC90101978C
:100C1000F1F75F982B984F5F433241F78BB18370A8
:100C20008BB985B1887F85B985B1877C85B940E06E
:100C30005C9A2D9AC9010197F1F75C982D985F9AFB
:100C40002C9AC9010197F1F75F982C982A9A2B9A50
:100C5000C9010197F1F72A982B984F5F433241F76A
:100C60008BB183708BB985B1887F85B985B1877C5D
:100C700085B940E05F9A2D9AC9010197F1F75F9815
:100C80002D982A9A2C9AC9010197F1F72A982C9845
:100C9000299A2B9AC9010197F1F729982B984F5F50
:100CA000433241F78BB183708BB985B1887F85B9A9
:100CB00085B1877C85B940E02A9A2D9AC9010197B0
:100CC000F1F72A982D98299A2C9AC9010197F1F7E2
:100CD00029982C98289A2B9AC9010197F1F72898FE
:100CE0002B984F5F433241F78BB183708BB985B13D
:100CF000887F85B985B1877C85B940E0299A2D9A8E
:100D0000C9010197F1F729982D98289A2C9AC901C1
:100D10000197F1F728982C985D9A2B9AC9010197B1
:100D2000F1F75D982B984F5F433241F78BB1837099
:100D30008BB985B1887F85B985B1877C85B95E5FC0
:100D4000563011F040E0ECCE30E060E971E040E474
:100D50005FE185B1886385B985B1876085B98CED20
:100D600095E0FB013197F1F70197D9F785B1887FBD
:100D700085B985B1877C85B920E08BB18C618BB951
:100D80002D9ACA010197F1F72D988BB1837E8BB90B
:100D90008BB1806E8BB92C9ACA010197F1F72C9810
:100DA0008BB18F718BB985B1876085B92B9ACA01D8
:100DB0000197F1F72B9885B1887F85B92F5F223392
:100DC000E1F62B9A8BB18C6F8BB985B1876085B9B1
:100DD0008CED95E0FB013197F1F70197D9F7289851
:100DE0008BB183708BB985B1887F85B920E08BB1D9
:100DF0008C618BB92B9ACA010197F1F72B988BB1B3
:100E0000837E8BB98BB1806E8BB92C9ACA01019706
:100E1000F1F72C988BB18F718BB985B1876085B94B
:100E20002D9ACA010197F1F72D9885B1887F85B970
:100E30002E5F2C34E1F62D9A8BB18C6F8BB985B176
:100E4000876085B98CED95E0FB013197F1F701974B
:100E5000D9F72D988BB183708BB985B1887F85B90F
:100E600020E08BB18C618BB92D9ACA010197F1F703
:100E70002D988BB1837E8BB98BB1806E8BB92C9AF8
:100E8000CA010197F1F72C988BB18F718BB985B19D
:100E9000876085B92B9ACA010197F1F72B9885B124
:100EA000887F85B92F5F2233E1F62B9A8BB18C6F47
:100EB0008BB985B1876085B98CED95E0FB013197E1
:100EC000F1F70197D9F728988BB183708BB985B169
:100ED000887F85B93F5F323009F03BCF30E0A0E931
:100EE000B1E060E47FE140EA5FE02B9A2A9A8EEE5F
:100EF00092E0FD013197F1F70197D9F7299A8EEE2B
:100F000092E0FD013197F1F70197D9F7289A8EEE1B
:100F100092E0FD013197F1F70197D9F75D9A8EEED6
:100F200092E0FD013197F1F70197D9F75A9A8EEEC9
:100F300092E0FD013197F1F70197D9F75B9A8EEEB8
:100F400092E0FD013197F1F70197D9F75C9A8EEEA7
:100F500092E0FD013197F1F70197D9F75F9A8EEE94
:100F600092E0FD013197F1F70197D9F75E9A8EEE85
:100F700092E0FD013197F1F70197D9F78BB18370BA
:100F80008BB985B1887F85B920E02C9A2A9ACB014C
:100F90000197F1F72C982B9A2A9A299A289A5D9A08
:100FA0005E9A5F9A5C9A5B9A5A9ACA010197F1F726
:100FB0002B988BB183708BB985B1887F85B92F5FF2
:100FC0002E3119F720E02C9A85B1866085B9CB01C6
:100FD0000197F1F72C982B9A2A9A299A289A5D9AC8
:100FE0005E9A5F9A5C9A5B9A5A9ACA010197F1F7E6
:100FF0002B988BB183708BB985B1887F85B92F5FB2
:101000002E3109F720E02C9A85B1876085B9CB0194
:101010000197F1F72C982B9A2A9A299A289A5D9A87
:101020005E9A5F9A5C9A5B9A5A9ACA010197F1F7A5
:101030002B988BB183708BB985B1887F85B92F5F71
:101040002E3109F720E02C9A85B1876085B95D9A29
:10105000CB010197F1F72C982B9A2A9A299A289A72
:101060005D9A5E9A5F9A5C9A5B9A5A9ACA01019756
:10107000F1F72B988BB183708BB985B1887F85B9D7
:101080002F5F2E3101F720E02C9A85B1876085B95A
:101090008BB184628BB9CB010197F1F72C982B9A15
:1010A0002A9A299A289A5D9A5E9A5F9A5C9A5B9A24
:1010B0005A9ACA010197F1F72B988BB183708BB9BB
:1010C00085B1887F85B92F5F2E31F1F620E02C9A0B
:1010D00085B1876085B98BB18C628BB9CB010197E3
:1010E000F1F72C982B9A2A9A299A289A5D9A5E9A57
:1010F0005F9A5C9A5B9A5A9ACA010197F1F72B980A
:101100008BB183708BB985B1887F85B92F5F2E3104
:10111000F1F620E02C9A85B1876085B98BB18C639C
:101120008BB9CB010197F1F72C982B9A2A9A299A1F
:10113000289A5D9A5E9A5F9A5C9A5B9A5A9ACA015B
:101140000197F1F72B988BB183708BB985B1887FAC
:1011500085B92F5F2E31F1F620E02C9A85B187609A
:1011600085B98BB18C6B8BB9CB010197F1F72C98BA
:101170002B9A2A9A299A289A5D9A5E9A5F9A5C9A83
:101180005B9A5A9ACA010197F1F72B988BB1837039
:101190008BB985B1887F85B92F5F2E31F1F620E0BC
:1011A0002C9A85B1876085B98BB18C6F8BB9CB01D7
:1011B0000197F1F72C982B9A2A9A299A289A5D9AE6
:1011C0005E9A5F9A5C9A5B9A5A9ACA010197F1F704
:1011D0002B988BB183708BB985B1887F85B92F5FD0
:1011E0002E31F1F620E02D9A2A9ACB010197F1F7E2
:1011F0002D982B9A2A9A299A289A5D9A5E9A5F9A34
:101200005C9A5B9A5A9ACA010197F1F72B988BB1B5
:1012100083708BB985B1887F85B92C9A2A9A299ACF
:10122000289A5D9A5E9A5F9A5C9A5B9A5A9ACA016A
:101230000197F1F72C988BB183708BB985B1887FBA
:1012400085B92F5F293179F620E02D9A85B1866026
:1012500085B9CB010197F1F72D982B9A2A9A299AF3
:10126000289A5D9A5E9A5F9A5C9A5B9A5A9ACA012A
:101270000197F1F72B988BB183708BB985B1887F7B
:1012800085B92C9A2A9A299A289A5D9A5E9A5F9A29
:101290005C9A5B9A5A9ACA010197F1F72C988BB124
:1012A00083708BB985B1887F85B92F5F293169F645
:1012B00020E02D9A85B1876085B9CB010197F1F7C0
:1012C0002D982B9A2A9A299A289A5D9A5E9A5F9A63
:1012D0005C9A5B9A5A9ACA010197F1F72B988BB1E5
:1012E00083708BB985B1887F85B92C9A2A9A299AFF
:1012F000289A5D9A5E9A5F9A5C9A5B9A5A9ACA019A
:101300000197F1F72C988BB183708BB985B1887FE9
:1013100085B92F5F293169F620E02D9A85B1876064
:1013200085B95D9ACB010197F1F72D982B9A2A9AEE
:10133000299A289A5D9A5E9A5F9A5C9A5B9A5A9A61
:10134000CA010197F1F72B988BB183708BB985B1E6
:10135000887F85B92C9A2A9A299A289A5D9A5E9A4A
:101360005F9A5C9A5B9A5A9ACA010197F1F72C9896
:101370008BB183708BB985B1887F85B92F5F293197
:1013800061F620E02D9A85B1876085B98BB18462C2
:101390008BB9CB010197F1F72D982B9A2A9A299AAC
:1013A000289A5D9A5E9A5F9A5C9A5B9A5A9ACA01E9
:1013B0000197F1F72B988BB183708BB985B1887F3A
:1013C00085B92C9A2A9A299A289A5D9A5E9A5F9AE8
:1013D0005C9A5B9A5A9ACA010197F1F72C988BB1E3
:1013E00083708BB985B1887F85B92F5F293151F61C
:1013F00020E02D9A85B1876085B98BB18C628BB95D
:10140000CB010197F1F72D982B9A2A9A299A289ABD
:101410005D9A5E9A5F9A5C9A5B9A5A9ACA010197A2
:10142000F1F72B988BB183708BB985B1887F85B923
:101430002C9A2A9A299A289A5D9A5E9A5F9A5C9ABF
:101440005B9A5A9ACA010197F1F72C988BB1837075
:101450008BB985B1887F85B92F5F293151F620E09E
:101460002D9A85B1876085B98BB18C638BB9CB011F
:101470000197F1F72D982B9A2A9A299A289A5D9A22
:101480005E9A5F9A5C9A5B9A5A9ACA010197F1F741
:101490002B988BB183708BB985B1887F85B92C9AD5
:1014A0002A9A299A289A5D9A5E9A5F9A5C9A5B9A20
:1014B0005A9ACA010197F1F72C988BB183708BB9B6
:1014C00085B1887F85B92F5F293151F620E02D9AAB
:1014D00085B1876085B98BB18C6B8BB9CB010197D6
:1014E000F1F72D982B9A2A9A299A289A5D9A5E9A52
:1014F0005F9A5C9A5B9A5A9ACA010197F1F72B9806
:101500008BB183708BB985B1887F85B92C9A2A9A63
:10151000299A289A5D9A5E9A5F9A5C9A5B9A5A9A7F
:10152000CA010197F1F72C988BB183708BB985B103
:10153000887F85B92F5F293151F620E02D9A85B13A
:10154000876085B98BB18C6F8BB9CB010197F1F7AF
:101550002D982B9A2A9A299A289A5D9A5E9A5F9AD0
:101560005C9A5B9A5A9ACA010197F1F72B988BB152
:1015700083708BB985B1887F85B92C9A2A9A299A6C
:10158000289A5D9A5E9A5F9A5C9A5B9A5A9ACA0107
:101590000197F1F72C988BB183708BB985B1887F57
:1015A00085B92F5F293151F620E02D9A2A9A299A80
:1015B000289A5D9A5E9A5F9A5C9A5B9A5A9ACA01D7
:1015C0000197F1F72D988BB183708BB985B1887F26
:1015D00085B92C9A2A9A299A289A5D9A5E9A5F9AD6
:1015E0005C9A5B9A5A9ACA010197F1F72C988BB1D1
:1015F00083708BB985B1887F85B92B9A85B1876057
:1016000085B98BB18C6B8BB95E98CB010197F1F7E3
:101610002B982F5F293149F620E02D9A2A9A299A92
:10162000289A5D9A5E9A5F9A5C9A5B9A5A9ACA0166
:101630000197F1F72D988BB183708BB985B1887FB5
:1016400085B92C9A2A9A299A289A5D9A5E9A5F9A65
:101650005C9A5B9A5A9ACA010197F1F72C988BB160
:1016600083708BB985B1887F85B92B9A85B18760E6
:1016700085B98BB18C638BB95E98CB010197F1F77B
:101680002B982F5F293149F620E02D9A2A9A299A22
:10169000289A5D9A5E9A5F9A5C9A5B9A5A9ACA01F6
:1016A0000197F1F72D988BB183708BB985B1887F45
:1016B00085B92C9A2A9A299A289A5D9A5E9A5F9AF5
:1016C0005C9A5B9A5A9ACA010197F1F72C988BB1F0
:1016D00083708BB985B1887F85B92B9A85B1876076
:1016E00085B98BB18C628BB95E98CB010197F1F70C
:1016F0002B982F5F293149F620E02D9A2A9A299AB2
:10170000289A5D9A5E9A5F9A5C9A5B9A5A9ACA0185
:101710000197F1F72D988BB183708BB985B1887FD4
:1017200085B92C9A2A9A299A289A5D9A5E9A5F9A84
:101730005C9A5B9A5A9ACA010197F1F72C988BB17F
:1017400083708BB985B1887F85B92B9A85B1876005
:1017500085B98BB184628BB95E98CB010197F1F7A3
:101760002B982F5F293149F620E02D9A2A9A299A41
:10177000289A5D9A5E9A5F9A5C9A5B9A5A9ACA0115
:101780000197F1F72D988BB183708BB985B1887F64
:1017900085B92C9A2A9A299A289A5D9A5E9A5F9A14
:1017A0005C9A5B9A5A9ACA010197F1F72C988BB10F
:1017B00083708BB985B1887F85B92B9A85B1876095
:1017C00085B95D9A5E98CB010197F1F72B982F5F51
:1017D000293159F620E02D9A2A9A299A289A5D9A59
:1017E0005E9A5F9A5C9A5B9A5A9ACA010197F1F7DE
:1017F0002D988BB183708BB985B1887F85B92C9A70
:101800002A9A299A289A5D9A5E9A5F9A5C9A5B9ABC
:101810005A9ACA010197F1F72C988BB183708BB952
:1018200085B1887F85B92B9A85B1876085B95E9827
:10183000CB010197F1F72B982F5F293161F620E05A
:101840002D9A2A9A299A289A5D9A5E9A5F9A5C9AAA
:101850005B9A5A9ACA010197F1F72D988BB1837060
:101860008BB985B1887F85B92C9A2A9A299A289AAA
:101870005D9A5E9A5F9A5C9A5B9A5A9ACA0101973E
:10188000F1F72C988BB183708BB985B1887F85B9BE
:101890002B9A85B1866085B95E982898CB0101970F
:1018A000F1F72B982F5F293159F620E02D9A2A9ACB
:1018B000299A289A5D9A5E9A5F9A5C9A5B9A5A9ADC
:1018C000CA010197F1F72D988BB183708BB985B15F
:1018D000887F85B92C9A2A9A299A289A5D9A5E9AC5
:1018E0005F9A5C9A5B9A5A9ACA010197F1F72C9811
:1018F0008BB183708BB985B1887F85B92B9A2A9A71
:101900005E9885B18C7F85B9CB010197F1F72B9853
:101910002F5F293159F620E02D9A2A9A299A289A80
:101920005D9A5E9A5F9A5C9A5B9A5A9ACA0101978D
:10193000F1F72D988BB183708BB985B1887F85B90C
:101940002C9A2A9A299A289A5D9A5E9A5F9A5C9AAA
:101950005B9A5A9ACA010197F1F72C988BB1837060
:101960008BB985B1887F85B92B9A5E9885B1887FC0
:1019700085B9CB010197F1F72B982F5F293161F6DB
:1019800020E02D9A2A9A299A289A5D9A5E9A5F9A5F
:101990005C9A5B9A5A9ACA010197F1F72D988BB11C
:1019A00083708BB985B1887F85B92C9A2A9A299A38
:1019B000289A5D9A5F9A5C9A5B9A5A9A5E98CA01D5
:1019C0000197F1F72C982F5F2332D9F620E02D9A5A
:1019D0002A9A299A289A5D9A5E9A5F9A5C9A5B9AEB
:1019E0005A9ACA010197F1F72D988BB183708BB980
:1019F00085B1887F85B92C9A2A9A299A289A5D9A66
:101A00005C9A5B9A5A9A8BB18F738BB9CA01019712
:101A1000F1F72C982F5F2332D1F620E02D9A2A9AE5
:101A2000299A289A5D9A5E9A5F9A5C9A5B9A5A9A6A
:101A3000CA010197F1F72D988BB183708BB985B1ED
:101A4000887F85B92C9A2A9A299A289A5D9A5B9A56
:101A50005A9A8BB18F728BB9CA010197F1F72C9802
:101A60002F5F2332D9F620E02D9A2A9A299A289AB4
:101A70005D9A5E9A5F9A5C9A5B9A5A9ACA0101973C
:101A8000F1F72D988BB183708BB985B1887F85B9BB
:101A90002C9A2A9A299A289A5D9A5A9A8BB1877217
:101AA0008BB9CA010197F1F72C982F5F2332E1F629
:101AB00020E02D9A2A9A299A289A5D9A5E9A5F9A2E
:101AC0005C9A5B9A5A9ACA010197F1F72D988BB1EB
:101AD00083708BB985B1887F85B92C9A2A9A299A07
:101AE000289A5D9A8BB183728BB9CA010197F1F77D
:101AF0002C982F5F2332E9F620E02D9A2A9A299A12
:101B0000289A5D9A5E9A5F9A5C9A5B9A5A9ACA0181
:101B10000197F1F72D988BB183708BB985B1887FD0
:101B200085B92C9A2A9A299A289A8BB183708BB9F5
:101B3000CA010197F1F72C982F5F2332F1F620E0CC
:101B40002D9A2A9A299A289A5D9A5E9A5F9A5C9AA7
:101B50005B9A5A9ACA010197F1F72D988BB183705D
:101B60008BB985B1887F85B92C9A299A2A9A8BB12D
:101B700083708BB92898CA010197F1F72C982F5FD1
:101B80002332F1F620E02D9A2A9A299A289A5D9A12
:101B90005E9A5F9A5C9A5B9A5A9ACA010197F1F72A
:101BA0002D988BB183708BB985B1887F85B92C9ABC
:101BB0002A9A8BB183708BB985B18C7F85B9CA01A4
:101BC0000197F1F72C982F5F2332E9F620E02D9A48
:101BD0002A9A299A289A5D9A5E9A5F9A5C9A5B9AE9
:101BE0005A9ACA010197F1F72D988BB183708BB97E
:101BF00085B1887F85B92C9A8BB183708BB985B1FB
:101C0000887F85B9CA010197F1F72C982F5F23329D
:101C1000F1F68BB18C6F8BB985B1876085B92D9A40
:101C20008EEE92E0FD013197F1F70197D9F75E98BA
:101C30008BB18C6B8BB985B1876085B98EEE92E0E4
:101C4000FD013197F1F70197D9F78BB18F738BB9FC
:101C50008BB18C638BB985B1876085B98EEE92E0CC
:101C6000FD013197F1F70197D9F78BB18F728BB9DD
:101C70008BB18C628BB985B1876085B98EEE92E0AD
:101C8000FD013197F1F70197D9F78BB187728BB9C5
:101C90008BB184628BB985B1876085B98EEE92E095
:101CA000FD013197F1F70197D9F78BB183728BB9A9
:101CB0005D9A85B1876085B98EEE92E0FD0131971E
:101CC000F1F70197D9F78BB183708BB985B1876034
:101CD00085B98EEE92E0FD013197F1F70197D9F7C2
:101CE0008BB183728BB9289885B1866085B98EEEE9
:101CF00092E0FD013197F1F70197D9F78BB183722B
:101D00008BB985B18C7F85B92A9A84EF91E0FD016A
:101D10003197F1F70197D9F78BB183728BB985B100
:101D2000887F85B98EEE92E0FD013197F1F701973A
:101D3000D9F785B1877C85B93F5F333011F00C94BA
:0A1D400075070C944900F894FFCFDA
:00000001FF
